{
  "contractName": "Election",
  "abi": [
    {
      "inputs": [],
      "payable": false,
      "stateMutability": "nonpayable",
      "type": "constructor"
    },
    {
      "anonymous": false,
      "inputs": [
        {
          "indexed": true,
          "internalType": "uint256",
          "name": "_candidateId",
          "type": "uint256"
        }
      ],
      "name": "votedEvent",
      "type": "event"
    },
    {
      "constant": true,
      "inputs": [],
      "name": "candidate",
      "outputs": [
        {
          "internalType": "string",
          "name": "",
          "type": "string"
        }
      ],
      "payable": false,
      "stateMutability": "view",
      "type": "function"
    },
    {
      "constant": true,
      "inputs": [
        {
          "internalType": "uint256",
          "name": "",
          "type": "uint256"
        }
      ],
      "name": "candidates",
      "outputs": [
        {
          "internalType": "uint256",
          "name": "id",
          "type": "uint256"
        },
        {
          "internalType": "string",
          "name": "name",
          "type": "string"
        },
        {
          "internalType": "uint256",
          "name": "voteCount",
          "type": "uint256"
        },
        {
          "internalType": "string",
          "name": "details",
          "type": "string"
        }
      ],
      "payable": false,
      "stateMutability": "view",
      "type": "function"
    },
    {
      "constant": true,
      "inputs": [],
      "name": "candidatesCount",
      "outputs": [
        {
          "internalType": "uint256",
          "name": "",
          "type": "uint256"
        }
      ],
      "payable": false,
      "stateMutability": "view",
      "type": "function"
    },
    {
      "constant": true,
      "inputs": [
        {
          "internalType": "address",
          "name": "",
          "type": "address"
        }
      ],
      "name": "voters",
      "outputs": [
        {
          "internalType": "bool",
          "name": "",
          "type": "bool"
        }
      ],
      "payable": false,
      "stateMutability": "view",
      "type": "function"
    },
    {
      "constant": false,
      "inputs": [
        {
          "internalType": "string",
          "name": "_name",
          "type": "string"
        },
        {
          "internalType": "string",
          "name": "_details",
          "type": "string"
        }
      ],
      "name": "addCandidate",
      "outputs": [],
      "payable": false,
      "stateMutability": "nonpayable",
      "type": "function"
    },
    {
      "constant": false,
      "inputs": [
        {
          "internalType": "uint256",
          "name": "_candidateId",
          "type": "uint256"
        }
      ],
      "name": "vote",
      "outputs": [],
      "payable": false,
      "stateMutability": "nonpayable",
      "type": "function"
    }
  ],
  "bytecode": "0x608060405234801561001057600080fd5b506108c0806100206000396000f3fe608060405234801561001057600080fd5b50600436106100625760003560e01c80630121b93f1461006757806326541b56146100955780632d35a8a2146101e75780633477ee2e146102055780636c8381f814610326578063a3ec138d146103a9575b600080fd5b6100936004803603602081101561007d57600080fd5b8101908080359060200190929190505050610405565b005b6101e5600480360360408110156100ab57600080fd5b81019080803590602001906401000000008111156100c857600080fd5b8201836020820111156100da57600080fd5b803590602001918460018302840111640100000000831117156100fc57600080fd5b91908080601f016020809104026020016040519081016040528093929190818152602001838380828437600081840152601f19601f8201169050808301925050505050505091929192908035906020019064010000000081111561015f57600080fd5b82018360208201111561017157600080fd5b8035906020019184600183028401116401000000008311171561019357600080fd5b91908080601f016020809104026020016040519081016040528093929190818152602001838380828437600081840152601f19601f820116905080830192505050505050509192919290505050610523565b005b6101ef6105c2565b6040518082815260200191505060405180910390f35b6102316004803603602081101561021b57600080fd5b81019080803590602001909291905050506105c8565b604051808581526020018060200184815260200180602001838103835286818151815260200191508051906020019080838360005b83811015610281578082015181840152602081019050610266565b50505050905090810190601f1680156102ae5780820380516001836020036101000a031916815260200191505b50838103825284818151815260200191508051906020019080838360005b838110156102e75780820151818401526020810190506102cc565b50505050905090810190601f1680156103145780820380516001836020036101000a031916815260200191505b50965050505050505060405180910390f35b61032e610728565b6040518080602001828103825283818151815260200191508051906020019080838360005b8381101561036e578082015181840152602081019050610353565b50505050905090810190601f16801561039b5780820380516001836020036101000a031916815260200191505b509250505060405180910390f35b6103eb600480360360208110156103bf57600080fd5b81019080803573ffffffffffffffffffffffffffffffffffffffff1690602001909291905050506107c6565b604051808215151515815260200191505060405180910390f35b600160003373ffffffffffffffffffffffffffffffffffffffff1673ffffffffffffffffffffffffffffffffffffffff16815260200190815260200160002060009054906101000a900460ff161561045c57600080fd5b60008111801561046e57506002548111155b61047757600080fd5b60018060003373ffffffffffffffffffffffffffffffffffffffff1673ffffffffffffffffffffffffffffffffffffffff16815260200190815260200160002060006101000a81548160ff02191690831515021790555060008082815260200190815260200160002060020160008154809291906001019190505550807ffff3c900d938d21d0990d786e819f29b8d05c1ef587b462b939609625b684b1660405160405180910390a250565b60026000815480929190600101919050555060405180608001604052806002548152602001838152602001600081526020018281525060008060025481526020019081526020016000206000820151816000015560208201518160010190805190602001906105939291906107e6565b506040820151816002015560608201518160030190805190602001906105ba9291906107e6565b509050505050565b60025481565b6000602052806000526040600020600091509050806000015490806001018054600181600116156101000203166002900480601f01602080910402602001604051908101604052809291908181526020018280546001816001161561010002031660029004801561067a5780601f1061064f5761010080835404028352916020019161067a565b820191906000526020600020905b81548152906001019060200180831161065d57829003601f168201915b505050505090806002015490806003018054600181600116156101000203166002900480601f01602080910402602001604051908101604052809291908181526020018280546001816001161561010002031660029004801561071e5780601f106106f35761010080835404028352916020019161071e565b820191906000526020600020905b81548152906001019060200180831161070157829003601f168201915b5050505050905084565b60038054600181600116156101000203166002900480601f0160208091040260200160405190810160405280929190818152602001828054600181600116156101000203166002900480156107be5780601f10610793576101008083540402835291602001916107be565b820191906000526020600020905b8154815290600101906020018083116107a157829003601f168201915b505050505081565b60016020528060005260406000206000915054906101000a900460ff1681565b828054600181600116156101000203166002900490600052602060002090601f016020900481019282601f1061082757805160ff1916838001178555610855565b82800160010185558215610855579182015b82811115610854578251825591602001919060010190610839565b5b5090506108629190610866565b5090565b61088891905b8082111561088457600081600090555060010161086c565b5090565b9056fea265627a7a723158204a4d93d9075b1cbf596b31f533bc26561cf0daf8cf66bf0e3787ebf64ce2272064736f6c63430005100032",
  "source": "pragma solidity ^0.5.16;\r\n\r\ncontract Election {\r\n\r\n    struct Candidate {\r\n        uint id;\r\n        string name;\r\n        uint voteCount;\r\n        string details;\r\n        // string election_id;\r\n    }\r\n\r\n    mapping(uint => Candidate) public candidates;\r\n    mapping(address => bool) public voters;\r\n\r\n    uint public candidatesCount;\r\n\r\n    string public candidate;\r\n\r\n    constructor() public {}\r\n\r\n    event votedEvent(\r\n        uint indexed _candidateId\r\n    );\r\n\r\n    // function addCandidate(string memory _name, string memory _details, string memory _election_id) public {\r\n    //     candidatesCount++;\r\n    //     candidates[candidatesCount] = Candidate(candidatesCount, _name, 0, _details, _election_id);\r\n    // }\r\n    function addCandidate(string memory _name, string memory _details) public {\r\n        candidatesCount++;\r\n        candidates[candidatesCount] = Candidate(candidatesCount, _name, 0, _details);\r\n    }\r\n\r\n    function vote(uint _candidateId) public {\r\n        require(!voters[msg.sender]);\r\n\r\n        require(_candidateId > 0 && _candidateId <= candidatesCount);\r\n        \r\n        voters[msg.sender] = true;\r\n        \r\n        candidates[_candidateId].voteCount++;\r\n    \r\n        emit votedEvent(_candidateId);\r\n    }\r\n\r\n}",
  "sourcePath": "E:\\Teja\\College\\sem8\\final-year-project\\src\\contracts\\Election.sol",
  "compiler": {
    "name": "solc",
    "version": "0.5.16+commit.9c3226ce.Emscripten.clang"
  },
  "schemaVersion": "3.4.13",
  "updatedAt": "2023-03-28T16:21:50.333Z",
  "networkType": "ethereum",
  "devdoc": {
    "methods": {}
  },
  "userdoc": {
    "methods": {}
  }
}